S01500006377746F78706C61696E6564322E73726563CB
S11300000C940A010C9430010C9430010C943001CE
S11300100C9430010C9430010C9430010C94300198
S11300200C9430010C9430010C9430010C94300188
S11300300C9430010C9430010C9430010C94300178
S11300400C9430010C9430010C9430010C94300168
S11300500C9430010C9430010C9430010C94300158
S11300600C9430010C9430010C9430010C94300148
S11300700C9430010C9430010C9430010C94300138
S11300800C9430010C9430010C9430010C94300128
S11300900C9430010C9430010C9430010C94300118
S11300A00C9430010C9430010C9430010C94300108
S11300B00C9430010C9430010C9430010C943001F8
S11300C00C9430010C9430010C9430010C943001E8
S11300D00C9430010C9430010C9430010C943001D8
S11300E00C9430010C9430010C9430010C943001C8
S11300F00C9430010C9430010C9430010C943001B8
S11301000C9430010C9430010C9430010C943001A7
S11301100C9430010C9430010C9430010C94300197
S11301200C9430010C9430010C9430010C94300187
S11301300C9430010C9430010C9430010C94300177
S11301400C9430010C9430010C9430010C94300167
S11301500C9430010C9430010C9430010C94300157
S11301600C9430010C9430010C9430010C94300147
S11301700C9430010C9430010C9430010C94300137
S11301800C9430010C9430010C9430010C94300127
S11301900C9430010C9430010C9430010C94300117
S11301A00C9430010C9430010C9430010C94300107
S11301B00C9430010C9430010C9430010C943001F7
S11301C00C9430010C9430010C9430010C943001E7
S11301D00C9430010C9430010C9430010C943001D7
S11301E00C9430010C9430010C9430010C943001C7
S11301F00C9430010C9430010C9430010C941A03CB
S11302000C949E010C9432010C947F010C94D8013F
S11302100C942D0311241FBECFEFCDBFDFE3DEBF4F
S113022000E00CBF18BE19BE1ABE1BBE10E2A0E04F
S1130230B0E2EAEFF8E000E00BBF02C007900D92D5
S1130240A630B107D9F71BBE20E2A6E0B0E201C098
S11302501D92A835B207E1F70E9409020C947B04B1
S11302600C940000CF93DF93CDB7DEB72897CDBFB2
S1130270DEBF1D821E821F82188681E080930506E0
S113028019821A821CC01B821C8210C08D819E811F
S1130290AF81B8850196A11DB11D8D839E83AF8367
S11302A0B8878B819C8101968B839C838B819C81F5
S11302B0C29760F389819A81019689839A8389819F
S11302C09A81C29700F381E080930606AE014B5FEA
S11302D05F4F64E082E70E94B3028D819E81AF810B
S11302E0B885843C9940A105B10511F080E101C0B5
S11302F080E02896CDBFDEBFDF91CF910895CF93E4
S1130300DF931F92CDB7DEB781E080930506F90134
S11303108081823A19F481E0898301C0198281E0E5
S113032080930606AE014F5F5F4F61E082E70E9453
S1130330B30280E00F90DF91CF910895CF93DF93C4
S1130340CDB7DEB72797CDBFDEBFB90186E0E0E0C9
S1130350F0E2DE01119601900D928A95E1F781E0B9
S11303608F838093050680E090E00EC0FB01E80FC8
S1130370F91F4081E1E0F0E0EC0FFD1FE80FF91FE9
S1130380308143131F820196853091057CF381E00F
S113039080930606AE01495F5F4F61E082E70E94E9
S11303A0B30280E02796CDBFDEBFDF91CF910895E1
S11303B0CF93DF931F92CDB7DEB71982E0E0F6E06A
S11303C081E08583868389818230E9F782E70E9410
S11303D0600482E40E94600482E50E94600485E473
S11303E00E94600481E40E9460048BE40E94600423
S11303F08FE40E94600485E50E94600484E50E9405
S113040060048AE00E94600480E00F90DF91CF9145
S113041008950E9467040E94450481E080930106C8
S11304200E94A40242E351E060E070E087E60E948B
S113043076024FE751E061E070E083E60E947602C5
S11304404EE951E065E070E081E00E94760248EDFB
S113045051E060E070E089E60E9476020E94600349
S1130460FDCFFC0180E017C0DF0111969081892740
S113047020E030E00BC0882334F490E0880F991F0B
S11304809DE4892701C0880F2F5F3F4F2830310535
S113049090F3642FFD014FEF460F6111E5CF0895EE
S11304A0AC0130E091E00EC0FA01E90FF11D2081AA
S11304B0211107C0FA01E30FF11D892F831B8083EB
S11304C0392F9F5F961780F380E00895DC018C91AB
S11304D01C92982F06C0FD01E80FF11D9081108237
S11304E0890F861710F49111F6CF089520915620A4
S11304F0309157202031310534F081E60E946004A8
S113050081E090E008956F3F710539F030F082E6A4
S11305100E94600481E090E00895F901EE0FFF1F4E
S1130520EE0FFF1FE20FF31FEA5FFF4D808361832D
S11305307283438354832F5F3F4F2093562030931D
S1130540572080E090E008954AE153E060E070E0D5
S113055086E70E9476024DE253E060E070E087E7B0
S11305600E9476020895CF92DF92EF92FF920F934A
S11305701F93CF93DF93CDB7DEB7DA95CDBFDEBF40
S11305804115510509F44AC019828A836B8300E03E
S113059010E00FC0F8013396DA01A00FB11F8C915F
S11305A021E030E02C0F3D1FE20FF31F80830F5F2B
S11305B01F4FE62EF12C0E151F0564F3680133E07E
S11305C0C30ED11C6E5FCE0102960E943102E1E09F
S11305D0F0E0EC0FFD1FEC0DFD1D8083F801349657
S11305E081E090E08C0F9D1FE80FF91F108265E0F9
S11305F0600F0E94500200E010E00BC0E1E0F0E068
S1130600EC0FFD1FE00FF11F80810E9460040F5F5B
S11306101F4FC70105960817190784F3D395CDBF5B
S1130620DEBFDF91CF911F910F91FF90EF90DF908C
S1130630CF900895CF93DF931F92CDB7DEB783E0B9
S11306408983AE014F5F5F4F61E082E70E94B3028E
S113065080E00F90DF91CF910895CF93DF93CDB7D2
S1130660DEB76097CDBFDEBF20E012C0FC01EE0F05
S1130670FF1FEE0FFF1FE80FF91FEA5FFF4D3081E8
S1130680E1E0F0E0EC0FFD1FE80FF91F30832F5F6E
S1130690822F90E06091562070915720AB0155272E
S11306A0841795071CF3AE014F5F5F4F82E70E94EA
S11306B0B30280E06096CDBFDEBFDF91CF91089595
S11306C0CF92DF92FF920F931F93CF93DF93CDB717
S11306D0DEB7C150D140CDBFDEBFCF5FDE4F188241
S11306E0C150D14000E010E014C00E945904E1E080
S11306F0F0E0EC0FFD1FE00FF11F8083811107C0B4
S113070085E0CF5FDE4F8883C150D140ABC00F5F1F
S11307101F4F043011054CF364E0CE0101960E9492
S11307206602F82E80E00EC0F801EE0FFF1FEE0FF8
S1130730FF1FE00FF11FEA5FFF4D40819A814917C7
S113074051F08F5F082F10E02091562030915720F0
S1130750021713074CF30217130739F481E0CF5F34
S1130760DE4F8883C150D1407DC08C8190E00596D6
S11307702F2D30E082179307ECF484E0CF5FDE4F37
S11307808883C150D1406EC00E945904E1E0F0E07A
S1130790EC0FFD1FEC0DFD1D8083811107C085E06A
S11307A0CF5FDE4F8883C150D1405CC08FEFC81A41
S11307B0D80A04C06894CC24C2F8D12C8C8190E06F
S11307C00596C816D90604F30E945904E1E0F0E046
S11307D0EC0FFD1FEC0DFD1D8083882339F084E0B0
S11307E0CF5FDE4F8883C150D1403CC06C2D6F1960
S11307F06F5F81E090E08C0F9D1F8F0D911D0E9413
S113080066026EEF6C0DCE0102960E94310291E0F9
S1130810C91AD108E1E0F0E0EC0FFD1FEC0DFD1D5D
S11308209081891739F082E0CF5FDE4F8883C15011
S1130830D14018C0F801EE0FFF1FEE0FFF1FE00FAD
S1130840F11FEA5FFF4D0380F481E02D9E012B5FD1
S11308503F4F4C816B818A811995CF5FDE4F88832E
S1130860C150D140AE014F5F5E4F61E085E60E940A
S1130870B302CF5FDE4FCDBFDEBFDF91CF911F91BB
S11308800F91FF90DF90CF900895E0E4F6E088E0C8
S1130890818384E08283E0EAF8E083E0858381E079
S11308A086831782848180618483848188608483C1
S11308B008958091A1088823E4F78091A008089501
S11308C09091A10895FFFCCF8093A0080895E0E5DE
S11308D0F0E01282158280818860808380915100CB
S11308E083FFFCCF88ED84BF83E08093400088E0E1
S10D08F0809350000895F894FFCFA0
S10908FA746F75636800D1
S9030000FC
